:100000000C942A000C9434000C9434000C943400AA
:100010000C9434000C9434000C9434000C94340090
:100020000C9434000C9434000C9434000C94340080
:100030000C9434000C9434000C9434000C94340070
:100040000C9434000C9434000C9434000C94340060
:100050000C94340011241FBECFE5D8E0DEBFCDBF25
:100060000E943F050C9451050C940000DF93CF9340
:1000700000D000D0CDB7DEB789836A838981282F6D
:1000800030E03C832B838B819C8181309105D1F0C2
:100090002B813C81223031052CF48B819C8100978F
:1000A00061F01EC02B813C812230310581F08B81B3
:1000B0009C818330910581F013C0EAE3F0E08A81EE
:1000C00080830EC0E7E3F0E08A81808309C0E4E327
:1000D000F0E08A81808304C0E1E3F0E08A818083DC
:1000E0000F900F900F900F90CF91DF910895DF93B5
:1000F000CF9300D000D0CDB7DEB789836A838981E2
:10010000282F30E03C832B838B819C8181309105AB
:10011000D1F02B813C81223031052CF48B819C81E4
:10012000009761F01EC02B813C812230310581F0A7
:100130008B819C818330910581F013C0EBE3F0E06B
:100140008A8180830EC0E8E3F0E08A81808309C061
:10015000E5E3F0E08A81808304C0E2E3F0E08A8195
:1001600080830F900F900F900F90CF91DF910895A3
:10017000DF93CF93CDB7DEB727970FB6F894DEBFE6
:100180000FBECDBF89836A834B838A81883008F094
:10019000EAC08B81813009F06FC08981282F30E05F
:1001A0003F832E838E819F818130910549F12E817D
:1001B0003F81223031052CF48E819F81009761F0C0
:1001C000D2C02E813F812230310571F18E819F8115
:1001D00083309105E9F1C7C0AAE3B0E0EAE3F0E0BB
:1001E0008081482F8A81282F30E081E090E0022E24
:1001F00002C0880F991F0A94E2F7842B8C93B3C036
:10020000A7E3B0E0E7E3F0E08081482F8A81282F60
:1002100030E081E090E0022E02C0880F991F0A941E
:10022000E2F7842B8C939FC0A4E3B0E0E4E3F0E01A
:100230008081482F8A81282F30E081E090E0022ED3
:1002400002C0880F991F0A94E2F7842B8C938BC00D
:10025000A1E3B0E0E1E3F0E08081482F8A81282F1C
:1002600030E081E090E0022E02C0880F991F0A94CE
:10027000E2F7842B8C9377C08B81882309F073C0BD
:100280008981282F30E03D832C838C819D818130B2
:10029000910559F12C813D81223031052CF48C815E
:1002A0009D81009769F05FC02C813D81223031052E
:1002B00089F18C819D818330910509F440C053C040
:1002C000AAE3B0E0EAE3F0E08081482F8A81282F9A
:1002D00030E081E090E0022E02C0880F991F0A945E
:1002E000E2F7809584238C933EC0A7E3B0E0E7E378
:1002F000F0E08081482F8A81282F30E081E090E073
:10030000022E02C0880F991F0A94E2F78095842379
:100310008C9329C0A4E3B0E0E4E3F0E08081482FAF
:100320008A81282F30E081E090E0022E02C0880F01
:10033000991F0A94E2F7809584238C9314C0A1E35B
:10034000B0E0E1E3F0E08081482F8A81282F30E09F
:1003500081E090E0022E02C0880F991F0A94E2F714
:10036000809584238C9327960FB6F894DEBF0FBE3A
:10037000CDBFCF91DF910895DF93CF93CDB7DEB797
:1003800027970FB6F894DEBF0FBECDBF89836A836F
:100390004B838A81883008F0EAC08B81813009F074
:1003A0006FC08981282F30E03F832E838E819F810B
:1003B0008130910549F12E813F81223031052CF4A5
:1003C0008E819F81009761F0D2C02E813F812230C3
:1003D000310571F18E819F8183309105E9F1C7C0AC
:1003E000ABE3B0E0EBE3F0E08081482F8A81282F77
:1003F00030E081E090E0022E02C0880F991F0A943D
:10040000E2F7842B8C93B3C0A8E3B0E0E8E3F0E01C
:100410008081482F8A81282F30E081E090E0022EF1
:1004200002C0880F991F0A94E2F7842B8C939FC017
:10043000A5E3B0E0E5E3F0E08081482F8A81282F32
:1004400030E081E090E0022E02C0880F991F0A94EC
:10045000E2F7842B8C938BC0A2E3B0E0E2E3F0E000
:100460008081482F8A81282F30E081E090E0022EA1
:1004700002C0880F991F0A94E2F7842B8C9377C0EF
:100480008B81882309F073C08981282F30E03D8358
:100490002C838C819D818130910559F12C813D8186
:1004A000223031052CF48C819D81009769F05FC06A
:1004B0002C813D812230310589F18C819D818330F1
:1004C000910509F440C053C0ABE3B0E0EBE3F0E0CA
:1004D0008081482F8A81282F30E081E090E0022E31
:1004E00002C0880F991F0A94E2F7809584238C93A9
:1004F0003EC0A8E3B0E0E8E3F0E08081482F8A81C5
:10050000282F30E081E090E0022E02C0880F991F72
:100510000A94E2F7809584238C9329C0A5E3B0E088
:10052000E5E3F0E08081482F8A81282F30E081E0E8
:1005300090E0022E02C0880F991F0A94E2F780957E
:1005400084238C9314C0A2E3B0E0E2E3F0E0808166
:10055000482F8A81282F30E081E090E0022E02C0EF
:10056000880F991F0A94E2F7809584238C9327962D
:100570000FB6F894DEBF0FBECDBFCF91DF910895C7
:10058000DF93CF9300D000D00F92CDB7DEB78A8330
:100590006B838B81883008F067C08A81282F30E018
:1005A0003D832C834C815D814130510541F18C812B
:1005B0009D818230910534F42C813D8121153105D6
:1005C00061F052C04C815D814230510551F18C8106
:1005D0009D8183309105B9F147C0E9E3F0E0808166
:1005E000282F30E08B81882F90E0A90102C055951B
:1005F00047958A95E2F7CA018170898335C0E6E3A1
:10060000F0E08081282F30E08B81882F90E0A901D5
:1006100002C0559547958A95E2F7CA018170898392
:1006200023C0E3E3F0E08081282F30E08B81882F26
:1006300090E0A90102C0559547958A95E2F7CA0155
:100640008170898311C0E0E3F0E08081282F30E0E1
:100650008B81882F90E0A90102C0559547958A9516
:10066000E2F7CA018170898389810F900F900F9002
:100670000F900F90CF91DF910895DF93CF9300D02B
:1006800000D0CDB7DEB789836A838A81883008F0CD
:100690006EC08981282F30E03C832B838B819C8125
:1006A0008130910549F12B813C81223031052CF4B8
:1006B0008B819C81009761F05AC02B813C81223054
:1006C000310571F18B819C8183309105E9F14FC037
:1006D000ABE3B0E0EBE3F0E08081482F8A81282F84
:1006E00030E081E090E0022E02C0880F991F0A944A
:1006F000E2F784278C933BC0A8E3B0E0E8E3F0E0A6
:100700008081482F8A81282F30E081E090E0022EFE
:1007100002C0880F991F0A94E2F784278C9327C0A0
:10072000A5E3B0E0E5E3F0E08081482F8A81282F3F
:1007300030E081E090E0022E02C0880F991F0A94F9
:10074000E2F784278C9313C0A2E3B0E0E2E3F0E089
:100750008081482F8A81282F30E081E090E0022EAE
:1007600002C0880F991F0A94E2F784278C930F9098
:100770000F900F900F90CF91DF910895DF93CF935B
:10078000CDB7DEB7ADE2B0E0EDE2F0E080818061B0
:100790008C93ADE2B0E0EDE2F0E0808181608C937B
:1007A000ADE2B0E0EDE2F0E0808182608C9381E028
:1007B00064E041E00E94B80081E065E041E00E9411
:1007C000B80081E066E040E00E94B80081E067E0A8
:1007D00041E00E94B800ADE2B0E0EDE2F0E08081DF
:1007E00080628C93ADE2B0E0EDE2F0E08081806465
:1007F0008C93CF91DF910895DF93CF930F92CDB774
:10080000DEB78983EFE2F0E089818083EEE2F0E0F9
:1008100080818823DCF7EFE2F0E080810F90CF91B8
:10082000DF910895DF93CF9300D0CDB7DEB79A83E1
:100830008983EEE2F0E08081881F8827881F81305D
:1008400031F4EFE2F0E08081E981FA8180830F905A
:100850000F90CF91DF910895DF93CF930F92CDB793
:10086000DEB78983EFE2F0E089818083EEE2F0E099
:1008700080818823DCF70F90CF91DF910895DF937B
:10088000CF930F92CDB7DEB783E060E040E00E94E7
:10089000B80083E061E041E00E94B800E9E2F0E0E6
:1008A00083E380838981877E898389818E7F8983A1
:1008B000898186608983EAE2F0E080818B7F808392
:1008C000898180648983E0E4F0E089818083EAE2C1
:1008D000F0E0808180618083EAE2F0E080818860DE
:1008E00080830F90CF91DF910895DF93CF9300D055
:1008F00000D000D0CDB7DEB78E831A821B821C8257
:100900001D82198216C08A819B81AC81BD810196AE
:10091000A11DB11D8A839B83AC83BD83EBE2F0E014
:1009200080818072882329F0ECE2F0E08E81808360
:100930000CC08A819B81AC81BD81813D27E09207FB
:1009400020E0A20720E0B207F0F28A819B81AC810F
:10095000BD81803D27E0920720E0A20720E0B2079A
:1009600011F481E08983898126960FB6F894DEBF61
:100970000FBECDBFCF91DF910895DF93CF9300D00D
:100980000F92CDB7DEB79B838A8319820EC089810F
:10099000282F30E08A819B81FC01E20FF31F8081C8
:1009A0000E94750489818F5F89838981282F30E0B7
:1009B0008A819B81FC01E20FF31F8081882339F734
:1009C0000F900F900F90CF91DF910895DF93CF9309
:1009D00000D000D0CDB7DEB79C838B838FEF8A83A6
:1009E00019820CC08981282F30E08B819C81FC0109
:1009F000E20FF31F108289818F5F8983898184319F
:100A000089F78A818F5F8A838A81282F332727FD80
:100A100030958B819C81820F931F0E9423058A81D0
:100A2000282F332727FD30958B819C81FC01E20F15
:100A3000F31F8081833229F70F900F900F900F9052
:100A4000CF91DF910895DF93CF9300D00F92CDB770
:100A5000DEB79B838A831982EBE2F0E080818078A5
:100A60008823D1F3ECE2F0E08081EA81FB8180838E
:100A700089810F900F900F90CF91DF910895DF93B0
:100A8000CF930F92CDB7DEB719820E943F040E9428
:100A9000BE03CE0101960E94230589810E942C0489
:060AA000F8CFF894FFCF2F
:00000001FF
