:100000000C942A000C9447000C9447000C94470071
:100010000C9447000C9447000C9447000C94470044
:100020000C9447000C9447000C9447000C94470034
:100030000C947F130C9447000C9447000C944700D9
:100040000C9447000C9447000C9447000C94470014
:100050000C94470011241FBECFE5D8E0DEBFCDBF12
:1000600012E0A0E6B0E0EAE5F8E302C005900D92E8
:10007000A030B107D9F712E0A0E0B2E001C01D92B4
:10008000AE31B107E1F70E9441170C942B1C0C9480
:100090000000EF92FF920F931F937B018C0120E0F1
:1000A00030E040E05FE40E94490388238CF0C801FF
:1000B000B70120E030E040E05FE40E94C1010E940F
:1000C000A9039B01AC01205030404040504806C07D
:1000D000C801B7010E94A9039B01AC01B901CA0183
:1000E0001F910F91FF90EF900895A0E0B0E0EBE733
:1000F000F0E00C944119DC012B01FA019C91923043
:1001000008F439C1EB018881823008F433C194309E
:1001100069F4843009F02FC111969C91119789815F
:10012000981709F428C1AEE8B1E025C1843009F47C
:1001300021C18230A9F4923009F01DC19A01AD01AC
:1001400088E0EA010990AE01E90109929E0181501F
:10015000C1F7E201898111969C918923818308C1AD
:10016000923009F407C112962D903C901397EB0141
:100170008A819B811496AD90BD90CD90DC901797AD
:10018000EC80FD800E811F819101281B390BB90184
:1001900037FF04C066277727621B730B6032710537
:1001A0000CF061C0121613066CF537014801062EDB
:1001B00004C096948794779467940A94D2F721E0C8
:1001C00030E040E050E004C0220F331F441F551FB1
:1001D0006A95D2F721503040404050402E213F21B7
:1001E00040235123211531054105510521F021E01E
:1001F00030E040E050E079018A01E628F72808293C
:1002000019293CC0232BD1F1260E371E350146019A
:10021000062E04C096948794779467940A94D2F734
:1002200021E030E040E050E004C0220F331F441FC3
:10023000551F6A95D2F721503040404050402A2146
:100240003B214C215D21211531054105510521F04E
:1002500021E030E040E050E059016A01A628B728CB
:10026000C828D9280BC0821593052CF01C01AA249C
:10027000BB24650103C0EE24FF24870111969C91E5
:10028000D20111968C91981709F445C0992339F041
:10029000A80197012A193B094C095D0906C0A6016E
:1002A00095012E193F09400B510B57FD08C01182D3
:1002B0003382228224833583468357831DC081E0A5
:1002C00081833382228288279927DC01821B930B4A
:1002D000A40BB50B84839583A683B7830DC0220F2F
:1002E000331F441F551F24833583468357838281E0
:1002F000938101979383828324813581468157813D
:10030000DA01C9010197A109B1098F5F9F4FAF4F72
:10031000BF4328F30BC0918333822282EA0CFB1C7B
:100320000C1D1D1DE482F5820683178383E0808304
:10033000248135814681578157FF1AC0C901AA27F8
:1003400097FDA095BA2F81709070A070B0705695EF
:10035000479537952795822B932BA42BB52B848318
:100360009583A683B7838281938101969383828349
:10037000DF0101C0D201CD01CDB7DEB7E2E10C94BF
:100380005D19A0E2B0E0E7ECF1E00C944D1969834F
:100390007A838B839C832D833E834F835887E9E048
:1003A000EE2EF12CEC0EFD1ECE010196B7010E943F
:1003B000D2048E010F5E1F4FCE010596B8010E9438
:1003C000D2048A8991E089278A8BC701B801AE01DE
:1003D000475E5F4F0E9475000E94FD03A096E6E015
:1003E0000C946919A0E2B0E0E8EFF1E00C944D192B
:1003F00069837A838B839C832D833E834F835887C5
:10040000F9E0EF2EF12CEC0EFD1ECE010196B701A6
:100410000E94D2048E010F5E1F4FCE010596B801D7
:100420000E94D204C701B801AE01475E5F4F0E942F
:1004300075000E94FD03A096E6E00C946919A0E205
:10044000B0E0E5E2F2E00C94411969837A838B8392
:100450009C832D833E834F835887CE010196BE0136
:10046000675F7F4F0E94D204CE010596BE016F5E8A
:100470007F4F0E94D2049985923088F0898982301A
:10048000C8F0943019F4823051F404C0843029F457
:10049000923081F48EE891E0C6C0923049F420E0B9
:1004A0009A858A89981321E02A87CE010996BBC0D4
:1004B000823049F420E09A858A89981321E02A8BBA
:1004C000CE014196B0C02D843E844F8458886D88FB
:1004D0007E888F88988CEE24FF248701AA24BB2471
:1004E000650140E050E060E070E0E0E0F0E0C10174
:1004F00081709070892BE9F0E60CF71C081D191D1E
:100500009A01AB012A0D3B1D4C1D5D1D80E090E062
:10051000A0E0B0E0E614F7040805190520F481E036
:1005200090E0A0E0B0E0BA01A901480F591F6A1F8E
:100530007B1FAA0CBB1CCC1CDD1C97FE08C081E0F5
:1005400090E0A0E0B0E0A82AB92ACA2ADB2A3196B6
:10055000E032F10549F0660C771C881C991C569412
:10056000479437942794C3CFFA85EA892B893C892D
:100570008B859C85280F391F2E5F3F4F17C0CA01FE
:1005800081709070892B61F016950795F794E79428
:1005900080E090E0A0E0B0E8E82AF92A0A2B1B2BC3
:1005A00076956795579547952F5F3F4F77FDE7CF36
:1005B0000CC0440F551F661F771F17FD4160EE0CDE
:1005C000FF1C001F111F21503040403090E05907A0
:1005D00090E0690790E4790760F32B8F3C8FDB0193
:1005E000CA018F779070A070B07080349105A1051A
:1005F000B10561F447FD0AC0E114F10401051105DC
:1006000029F0405C5F4F6F4F7F4F40781A8EFE1786
:1006100011F081E08A8F4D8F5E8F6F8F78A383E01A
:10062000898FCE0149960E94FD03A096E2E10C94C9
:100630005D19A8E1B0E0EFE1F3E00C944D19698396
:100640007A838B839C832D833E834F83588789E0F5
:10065000E82EF12CEC0EFD1ECE010196B7010E9492
:10066000D2048E010F5E1F4FCE010596B8010E9485
:10067000D2048985823040F08989823028F0C70110
:10068000B8010E944A0501C08FEF6896E6E00C941D
:100690006919A8E1B0E0EFE4F3E00C944D19698327
:1006A0007A838B839C832D833E834F83588789E095
:1006B000E82EF12CEC0EFD1ECE010196B7010E9432
:1006C000D2048E010F5E1F4FCE010596B8010E9425
:1006D000D2048985823040F08989823028F0C701B0
:1006E000B8010E944A0501C08FEF6896E6E00C94BD
:1006F0006919A8E1B0E0EFE7F3E00C944D196983C4
:100700007A838B839C832D833E834F83588789E034
:10071000E82EF12CEC0EFD1ECE010196B7010E94D1
:10072000D2048E010F5E1F4FCE010596B8010E94C4
:10073000D2048985823040F08989823028F0C7014F
:10074000B8010E944A0501C081E06896E6E00C9479
:100750006919ACE0B0E0EFEAF3E00C945119698359
:100760007A838B839C83CE010196BE016B5F7F4FA2
:100770000E94D2048D81823061F1823050F1843048
:1007800021F48E81882351F12EC02F81388537FDC9
:1007900020C06E812F3131051CF06623F9F023C093
:1007A0008EE190E0821B930B29853A854B855C8511
:1007B00004C056954795379527958A95D2F76623B5
:1007C000B1F050954095309521953F4F4F4F5F4F79
:1007D0000EC020E030E040E050E009C02FEF3FEFD6
:1007E0004FEF5FE704C020E030E040E050E8B9019F
:1007F000CA012C96E2E00C946D19DF92EF92FF9201
:100800000F931F93FC01E480F58006811781D1804E
:100810008081823048F480E090E0A0E1B0E0E82AF6
:10082000F92A0A2B1B2BA5C0843009F49FC0823003
:1008300021F4EE24FF24870105C0E114F104010531
:10084000110519F4E0E0F0E096C0628173819FEF3A
:10085000623879070CF05BC022E83FEF261B370BAC
:100860002A3131052CF020E030E040E050E02AC091
:10087000B801A701022E04C0769567955795479554
:100880000A94D2F781E090E0A0E0B0E004C0880FC5
:10089000991FAA1FBB1F2A95D2F70197A109B10979
:1008A0008E219F21A023B1230097A105B10521F03E
:1008B00081E090E0A0E0B0E09A01AB01282B392B59
:1008C0004A2B5B2BDA01C9018F779070A070B07052
:1008D00080349105A105B10539F427FF09C0205CDA
:1008E0003F4F4F4F5F4F04C0215C3F4F4F4F5F4F13
:1008F000E0E0F0E02030A0E03A07A0E04A07A0E402
:100900005A0710F0E1E0F0E079018A0127C0603871
:10091000710564F5FB01E158FF4FD801C7018F77DE
:100920009070A070B07080349105A105B10539F4C4
:10093000E7FE0DC080E490E0A0E0B0E004C08FE3EB
:1009400090E0A0E0B0E0E80EF91E0A1F1B1F17FFA1
:1009500005C016950795F794E794319687E01695AC
:100960000795F794E7948A95D1F705C0EE24FF2404
:100970008701EFEFF0E06E2F679566276795902F60
:100980009F77D794DD24D7948E2F8695492F462BB9
:10099000582F5D29B701CA011F910F91FF90EF9069
:1009A000DF900895FC01DB01408151812281622F9B
:1009B0006F7770E0221F2227221F9381892F880FD3
:1009C000822B282F30E0991F9927991F11969C930D
:1009D000119721153105A9F54115510561057105DD
:1009E00011F482E037C082E89FEF13969C938E93B8
:1009F00012979A01AB0167E0220F331F441F551F66
:100A00006A95D1F783E08C930DC0220F331F441FEA
:100A1000551F12968D919C911397019713969C9355
:100A20008E931297203080E0380780E0480780E4FA
:100A3000580758F314962D933D934D935C93179755
:100A400008952F3F310579F4411551056105710570
:100A500019F484E08C93089564FF03C081E08C93C3
:100A600012C01C9210C02F57304013963C932E9307
:100A7000129783E08C9387E0440F551F661F771F02
:100A80008A95D1F7706414964D935D936D937C9322
:100A9000179708951F93DC01FB019C91923008F495
:100AA00047C08081823008F443C0943051F41196DD
:100AB0001C91843099F58181682F70E0611B710968
:100AC0003FC0843021F0923031F48230B9F181811D
:100AD000882389F12DC011961C9111978230F1F075
:100AE00081811817D9F412962D913C911397828128
:100AF00093818217930794F028173907BCF0149656
:100B00008D919D910D90BC91A02D248135814681C0
:100B10005781281739074A075B0718F4112341F05A
:100B20000AC082179307A407B50740F4112319F0F0
:100B300061E070E005C06FEF7FEF02C060E070E041
:100B4000CB011F910895DF93CF93CDB7DEB7E7E2D6
:100B5000F0E080818F7D8083E7E2F0E080818F7319
:100B600080648083E6E2F0E08081887F8260808319
:100B7000E6E2F0E0808180688083CF91DF91089584
:100B8000DF93CF9300D0CDB7DEB78A8382E089832D
:100B90008A81883058F4E7E2F0E08A818F71982FDB
:100BA0009F718081807E892B808302C083E089834E
:100BB00089810F900F90CF91DF910895DF93CF93AC
:100BC000CDB7DEB727970FB6F894DEBF0FBECDBF07
:100BD0009F838E831A821B821C821D8282E08983FE
:100BE0008E819F810097D1F1E6E2F0E08081806400
:100BF00080830BC08A819B81AC81BD810196A11D40
:100C0000B11D8A839B83AC83BD83E6E2F0E08081E3
:100C10008071882361F48A819B81AC81BD81813A96
:100C200026E8920721E0A20720E0B20718F3E6E2E7
:100C3000F0E080818071882371F0E6E2F0E080814D
:100C400080618083E4E2F0E080819181EE81FF8128
:100C50009183808304C081E0898301C019828981E6
:100C600027960FB6F894DEBF0FBECDBFCF91DF91B0
:100C70000895DF93CF93CDB7DEB7E6E2F0E0808151
:100C800080648083CF91DF910895DF93CF9300D06C
:100C900000D0CDB7DEB79C838B8384E08A8382E06B
:100CA00089838B819C810097C1F013C08A81815018
:100CB0008A838A810E94C0058A81882F90E09C01E6
:100CC000220F331F8B819C81820F931F0E94DE05B0
:100CD00089838A81882351F701C0198289810F9005
:100CE0000F900F900F90CF91DF910895EF92FF92A8
:100CF0000F931F93DF93CF93CDB7DEB72C970FB62B
:100D0000F894DEBF0FBECDBF9E838D8378876F833F
:100D10005A8749873C872B871A821982E4E2F0E0E0
:100D2000808191819A83898329813A818D819E81F5
:100D3000A901481B590BCA017C0100E010E02B857A
:100D40003C8589859A85A901481B590BCA019C01DC
:100D500040E050E0C801B7010E9400197B018C01FE
:100D60002F8138858D819E81A901481B590BCA01AD
:100D70009C0140E050E0C801B7010E941F19DA0150
:100D8000C9019C0189859A85820F931F9C838B835F
:100D90008B819C812C960FB6F894DEBF0FBECDBF21
:100DA000CF91DF911F910F91FF90EF900895DF9306
:100DB000CF9300D000D0CDB7DEB789836A83898115
:100DC000282F30E03C832B838B819C8181309105DF
:100DD000D1F02B813C81223031052CF48B819C8118
:100DE000009761F01EC02B813C812230310581F0DB
:100DF0008B819C818330910581F013C0EAE3F0E0A0
:100E00008A8180830EC0E7E3F0E08A81808309C095
:100E1000E4E3F0E08A81808304C0E1E3F0E08A81CA
:100E200080830F900F900F900F90CF91DF910895D6
:100E3000DF93CF9300D000D0CDB7DEB789836A832C
:100E40008981282F30E03C832B838B819C818130EA
:100E50009105D1F02B813C81223031052CF48B811E
:100E60009C81009761F01EC02B813C8122303105AE
:100E700081F08B819C818330910581F013C0EBE37D
:100E8000F0E08A8180830EC0E8E3F0E08A8180830D
:100E900009C0E5E3F0E08A81808304C0E2E3F0E08A
:100EA0008A8180830F900F900F900F90CF91DF91E8
:100EB0000895DF93CF93CDB7DEB727970FB6F89499
:100EC000DEBF0FBECDBF89836A834B838A818830A2
:100ED00008F0EAC08B81813009F06FC08981282F2A
:100EE00030E03F832E838E819F818130910549F1CF
:100EF0002E813F81223031052CF48E819F81009715
:100F000061F0D2C02E813F812230310571F18E8196
:100F10009F8183309105E9F1C7C0AAE3B0E0EAE31D
:100F2000F0E08081482F8A81282F30E081E090E036
:100F3000022E02C0880F991F0A94E2F7842B8C932B
:100F4000B3C0A7E3B0E0E7E3F0E08081482F8A81F7
:100F5000282F30E081E090E0022E02C0880F991F18
:100F60000A94E2F7842B8C939FC0A4E3B0E0E4E3FF
:100F7000F0E08081482F8A81282F30E081E090E0E6
:100F8000022E02C0880F991F0A94E2F7842B8C93DB
:100F90008BC0A1E3B0E0E1E3F0E08081482F8A81DB
:100FA000282F30E081E090E0022E02C0880F991FC8
:100FB0000A94E2F7842B8C9377C08B81882309F005
:100FC00073C08981282F30E03D832C838C819D81E3
:100FD0008130910559F12C813D81223031052CF46D
:100FE0008C819D81009769F05FC02C813D8122300A
:100FF000310589F18C819D818330910509F440C0D0
:1010000053C0AAE3B0E0EAE3F0E08081482F8A8190
:10101000282F30E081E090E0022E02C0880F991F57
:101020000A94E2F7809584238C933EC0A7E3B0E056
:10103000E7E3F0E08081482F8A81282F30E081E0CB
:1010400090E0022E02C0880F991F0A94E2F7809563
:1010500084238C9329C0A4E3B0E0E4E3F0E0808132
:10106000482F8A81282F30E081E090E0022E02C0D4
:10107000880F991F0A94E2F7809584238C9314C0FB
:10108000A1E3B0E0E1E3F0E08081482F8A81282FDE
:1010900030E081E090E0022E02C0880F991F0A9490
:1010A000E2F7809584238C9327960FB6F894DEBFE1
:1010B0000FBECDBFCF91DF910895DF93CF93CDB712
:1010C000DEB727970FB6F894DEBF0FBECDBF89837A
:1010D0006A834B838A81883008F0EAC08B81813033
:1010E00009F06FC08981282F30E03F832E838E81E5
:1010F0009F818130910549F12E813F812230310558
:101100002CF48E819F81009761F0D2C02E813F81A7
:101110002230310571F18E819F8183309105E9F193
:10112000C7C0ABE3B0E0EBE3F0E08081482F8A81F9
:10113000282F30E081E090E0022E02C0880F991F36
:101140000A94E2F7842B8C93B3C0A8E3B0E0E8E301
:10115000F0E08081482F8A81282F30E081E090E004
:10116000022E02C0880F991F0A94E2F7842B8C93F9
:101170009FC0A5E3B0E0E5E3F0E08081482F8A81DD
:10118000282F30E081E090E0022E02C0880F991FE6
:101190000A94E2F7842B8C938BC0A2E3B0E0E2E3E5
:1011A000F0E08081482F8A81282F30E081E090E0B4
:1011B000022E02C0880F991F0A94E2F7842B8C93A9
:1011C00077C08B81882309F073C08981282F30E094
:1011D0003D832C838C819D818130910559F12C8137
:1011E0003D81223031052CF48C819D81009769F07E
:1011F0005FC02C813D812230310589F18C819D8138
:101200008330910509F440C053C0ABE3B0E0EBE399
:10121000F0E08081482F8A81282F30E081E090E043
:10122000022E02C0880F991F0A94E2F7809584234A
:101230008C933EC0A8E3B0E0E8E3F0E08081482F63
:101240008A81282F30E081E090E0022E02C0880FD2
:10125000991F0A94E2F7809584238C9329C0A5E313
:10126000B0E0E5E3F0E08081482F8A81282F30E06C
:1012700081E090E0022E02C0880F991F0A94E2F7E5
:10128000809584238C9314C0A2E3B0E0E2E3F0E005
:101290008081482F8A81282F30E081E090E0022E63
:1012A00002C0880F991F0A94E2F7809584238C93DB
:1012B00027960FB6F894DEBF0FBECDBFCF91DF915A
:1012C0000895DF93CF9300D000D00F92CDB7DEB753
:1012D0008A836B838B81883008F067C08A81282FCE
:1012E00030E03D832C834C815D814130510541F1DB
:1012F0008C819D818230910534F42C813D812115B2
:10130000310561F052C04C815D814230510551F18F
:101310008C819D8183309105B9F147C0E9E3F0E00C
:101320008081282F30E08B81882F90E0A90102C0B6
:10133000559547958A95E2F7CA018170898335C032
:10134000E6E3F0E08081282F30E08B81882F90E069
:10135000A90102C0559547958A95E2F7CA018170A7
:10136000898323C0E3E3F0E08081282F30E08B8184
:10137000882F90E0A90102C0559547958A95E2F71C
:10138000CA018170898311C0E0E3F0E08081282FD9
:1013900030E08B81882F90E0A90102C055954795D8
:1013A0008A95E2F7CA018170898389810F900F9035
:1013B0000F900F900F90CF91DF910895DF93CF930F
:1013C00000D000D0CDB7DEB789836A838A818830A8
:1013D00008F06EC08981282F30E03C832B838B81FD
:1013E0009C818130910549F12B813C81223031056E
:1013F0002CF48B819C81009761F05AC02B813C8139
:101400002230310571F18B819C8183309105E9F1A6
:101410004FC0ABE3B0E0EBE3F0E08081482F8A817E
:10142000282F30E081E090E0022E02C0880F991F43
:101430000A94E2F784278C933BC0A8E3B0E0E8E38A
:10144000F0E08081482F8A81282F30E081E090E011
:10145000022E02C0880F991F0A94E2F784278C930A
:1014600027C0A5E3B0E0E5E3F0E08081482F8A8162
:10147000282F30E081E090E0022E02C0880F991FF3
:101480000A94E2F784278C9313C0A2E3B0E0E2E36E
:10149000F0E08081482F8A81282F30E081E090E0C1
:1014A000022E02C0880F991F0A94E2F784278C93BA
:1014B0000F900F900F900F90CF91DF910895DF93D1
:1014C000CF93CDB7DEB783E066E041E00E945907D5
:1014D00083E067E041E00E94590780E064E041E07A
:1014E0000E94590780E065E041E00E94590780E0D2
:1014F00066E041E00E94590780E067E041E00E9419
:101500005907CF91DF910895DF93CF9300D000D09A
:10151000CDB7DEB78A8319828A81282F30E03C83D9
:101520002B838B819C818233910509F46BC02B81C5
:101530003C812333310534F48B819C8181339105C7
:1015400071F059C12B813C812333310509F4ADC0C1
:101550008B819C818433910509F4FAC04CC182E0EF
:1015600092E020E630E0B9010E9481190097F9F479
:1015700087E991E028E630E0B9014AE050E00E94B6
:10158000781982E066E040E00E945D0882E067E052
:1015900040E00E945D080E94E91489E190E00E9409
:1015A000D71480E064E041E00E945D0826C182E03B
:1015B00092E022E730E0B9010E9481190097F9F426
:1015C00087E991E02BE730E0B9014AE050E00E9462
:1015D000781982E066E040E00E945D0882E067E002
:1015E00040E00E945D080E94E91481E490E00E94BE
:1015F000D71480E064E040E00E945D08FEC081E016
:101600008983FBC082E092E025E830E0B9010E94C6
:1016100081190097F9F486EA91E02DE830E0B901EC
:101620004AE050E00E94781982E066E041E00E94C2
:101630005D0882E067E040E00E945D080E94E914D6
:1016400089E190E00E94D71480E065E041E00E94CB
:101650005D08D3C082E092E027E930E0B9010E9442
:1016600081190097F9F486EA91E020EA30E0B901A7
:101670004AE050E00E94781982E066E041E00E9472
:101680005D0882E067E040E00E945D080E94E91486
:1016900081E490E00E94D71480E065E040E00E9481
:1016A0005D08ABC081E08983A8C082E092E02AEAAD
:1016B00030E0B9010E9481190097F9F485EB91E0BF
:1016C00022EB30E0B9014AE050E00E94781982E054
:1016D00066E040E00E945D0882E067E041E00E9431
:1016E0005D080E94E91489E190E00E94D71480E02F
:1016F00066E041E00E945D0880C082E092E02CEB51
:1017000030E0B9010E9481190097F9F485EB91E06E
:1017100025EC30E0B9014AE050E00E94781982E0FF
:1017200066E040E00E945D0882E067E041E00E94E0
:101730005D080E94E91481E490E00E94D71480E0E3
:1017400066E040E00E945D0858C081E0898355C092
:1017500082E092E02FEC30E0B9010E9481190097FD
:10176000F9F484EC91E027ED30E0B9014AE050E073
:101770000E94781982E066E041E00E945D0882E004
:1017800067E041E00E945D080E94E91489E190E071
:101790000E94D71480E067E041E00E945D082DC000
:1017A00082E092E021EE30E0B9010E9481190097B9
:1017B000F9F484EC91E02AEE30E0B9014AE050E01F
:1017C0000E94781982E066E041E00E945D0882E0B4
:1017D00067E041E00E945D080E94E91481E490E026
:1017E0000E94D71480E067E040E00E945D0805C0D9
:1017F00081E0898302C081E0898389810F900F9005
:101800000F900F90CF91DF910895DF93CF93CDB7D5
:10181000DEB7E8970FB6F894DEBF0FBECDBF0E94CB
:10182000E91482E066E040E00E945D0882E067E043
:1018300040E00E945D0881E490E00E94D71480E0BF
:1018400090E0A8E4B2E48DAB9EABAFABB8AF6DA9AE
:101850007EA98FA998AD20E030E04AEF54E40E94C1
:101860001F02DC01CB0189AB9AABABABBCAB69A966
:101870007AA98BA99CA920E030E040E85FE30E94B0
:10188000790388232CF481E090E098AB8FA73FC0C8
:1018900069A97AA98BA99CA920E03FEF4FE757E4FB
:1018A0000E94190318164CF56DA97EA98FA998AD51
:1018B00020E030E040E251E40E941F02DC01CB0155
:1018C000BC01CD010E944900DC01CB0198AB8FA780
:1018D0000FC088EC90E09EA78DA78DA59EA50197CF
:1018E000F1F79EA78DA78FA598A9019798AB8FA711
:1018F0008FA598A9009769F714C069A97AA98BA93F
:101900009CA90E944900DC01CB0198AB8FA78FA551
:1019100098A99CA78BA78BA59CA50197F1F79CA7DD
:101920008BA782E066E041E00E945D0882E067E00C
:1019300040E00E945D0881E490E00E94D71480E0BE
:1019400090E0A8E4B2E48FA398A7A9A7BAA76FA1D3
:1019500078A589A59AA520E030E04AEF54E40E94DA
:101960001F02DC01CB018BA39CA3ADA3BEA36BA183
:101970007CA18DA19EA120E030E040E85FE30E94C1
:10198000790388232CF481E090E09AA389A33FC0D7
:101990006BA17CA18DA19EA120E03FEF4FE757E412
:1019A0000E94190318164CF56FA178A589A59AA570
:1019B00020E030E040E251E40E941F02DC01CB0154
:1019C000BC01CD010E944900DC01CB019AA389A38F
:1019D0000FC088EC90E098A38F8F8F8D98A101970E
:1019E000F1F798A38F8F89A19AA101979AA389A350
:1019F00089A19AA1009769F714C06BA17CA18DA160
:101A00009EA10E944900DC01CB019AA389A389A170
:101A10009AA19E8F8D8F8D8D9E8D0197F1F79E8F50
:101A20008D8F82E066E040E00E945D0882E067E022
:101A300041E00E945D0881E490E00E94D71480E0BC
:101A400090E0A8E4B2E4898F9A8FAB8FBC8F698D48
:101A50007A8D8B8D9C8D20E030E04AEF54E40E941B
:101A60001F02DC01CB018D8B9E8BAF8BB88F6D89F4
:101A70007E898F89988D20E030E040E85FE30E9406
:101A8000790388232CF481E090E09C8B8B8B3FC002
:101A90006D897E898F89988D20E03FEF4FE757E46D
:101AA0000E94190318164CF5698D7A8D8B8D9C8DCB
:101AB00020E030E040E251E40E941F02DC01CB0153
:101AC000BC01CD010E944900DC01CB019C8B8B8BBA
:101AD0000FC088EC90E09A8B898B89899A8901974D
:101AE000F1F79A8B898B8B899C8901979C8B8B8BC7
:101AF0008B899C89009769F714C06D897E898F89CD
:101B0000988D0E944900DC01CB019C8B8B8B8B89CB
:101B10009C89988B8F878F8598890197F1F7988B8F
:101B20008F8782E066E041E00E945D0882E067E026
:101B300041E00E945D0881E490E00E94D71480E0BB
:101B400090E0A8E4B2E48B879C87AD87BE876B8565
:101B50007C858D859E8520E030E04AEF54E40E942C
:101B60001F02DC01CB018F839887A987BA876F8119
:101B7000788589859A8520E030E040E85FE30E941F
:101B8000790388232CF481E090E09E838D833FC00D
:101B90006F81788589859A8520E03FEF4FE757E48C
:101BA0000E94190318164CF56B857C858D859E85E2
:101BB00020E030E040E251E40E941F02DC01CB0152
:101BC000BC01CD010E944900DC01CB019E838D83C5
:101BD0000FC088EC90E09C838B838B819C81019764
:101BE000F1F79C838B838D819E8101979E838D83EA
:101BF0008D819E81009769F714C06F8178858985F2
:101C00009A850E944900DC01CB019E838D838D81E2
:101C10009E819A83898389819A810197F1F79A83BA
:101C200089830E940515E8960FB6F894DEBF0FBEB3
:101C3000CDBFCF91DF910895DF93CF93CDB7DEB7BE
:101C400083E060E041E00E94590783E061E041E009
:101C50000E94590783E062E041E00E94590783E057
:101C600063E041E00E945907CF91DF910895DF932F
:101C7000CF9300D000D0CDB7DEB78A8319828A8196
:101C8000282F30E03C832B838B819C818C34910501
:101C900009F49BC02B813C812D34310564F48B8188
:101CA0009C818234910509F466C02B813C812634E5
:101CB000310569F0DBC08B819C818235910589F10A
:101CC0002B813C812335310509F4A9C0CFC082E0C6
:101CD00092E024EF30E0B9010E9481190097F1F4FD
:101CE00083ED91E028EF30E0B9014FE050E00E9431
:101CF000781983E060E041E00E945D0883E061E0E4
:101D000040E00E945D0883E062E041E00E945D08DF
:101D100083E063E040E00E945D08AAC081E089831F
:101D2000A7C082E092E027E031E0B9010E9481196A
:101D30000097F1F483ED91E02BE031E0B9014FE041
:101D400050E00E94781983E060E040E00E945D0866
:101D500083E061E040E00E945D0883E062E041E0F2
:101D60000E945D0883E063E040E00E945D0880C05F
:101D700081E089837DC082E092E02AE131E0B9010F
:101D80000E9481190097F1F483ED91E02EE131E09A
:101D9000B9014FE050E00E94781983E060E040E034
:101DA0000E945D0883E061E041E00E945D0883E0FD
:101DB00062E040E00E945D0883E063E041E00E9451
:101DC0005D0856C081E0898353C082E092E02DE235
:101DD00031E0B9010E9481190097F1F483ED91E09F
:101DE00021E331E0B9014FE050E00E94781983E02F
:101DF00060E041E00E945D0883E061E040E00E9415
:101E00005D0883E062E040E00E945D0883E063E0FB
:101E100040E00E945D082CC081E0898329C082E0F7
:101E200092E020E431E0B9010E948119009701F5A8
:101E300083ED91E024E431E0B9014FE050E00E94ED
:101E4000781983E060E040E00E945D0883E061E093
:101E500040E00E945D0883E062E040E00E945D088F
:101E600083E063E040E00E945D0802C081E0898376
:101E700089810F900F900F900F90CF91DF9108956F
:101E8000DF93CF9300D000D0CDB7DEB78A8319821D
:101E90008A81282F30E03C832B838B819C81823484
:101EA0009105D9F12B813C812634310509F06AC0B6
:101EB00082E092E023E531E0B9010E9481190097A8
:101EC00081F4809117028B3528F480911702865F88
:101ED000809317020E944915809117020E946E1587
:101EE00053C082E092E028E531E0B9010E948119F7
:101EF000009781F4809117028B3528F480911702A6
:101F00008A50809317020E944915809117020E94FF
:101F10006E153AC081E0898337C082E092E02DE5FA
:101F200031E0B9010E948119009781F48091180273
:101F30008B3528F480911802865F809318020E94E6
:101F4000F115809118020E9416161EC082E092E0E0
:101F500022E631E0B9010E948119009781F4809155
:101F600018028B3528F4809118028A508093180249
:101F70000E94F115809118020E94161605C081E09A
:101F8000898302C081E0898380911702282F30E085
:101F900000D000D000D0EDB7FEB7319682EE91E0D0
:101FA0009183808387E691E09383828335832483C2
:101FB0000E948A198DB79EB706960FB6F8949EBFF9
:101FC0000FBE8DBF80911802282F30E000D000D0C6
:101FD00000D0EDB7FEB7319681EF91E09183808319
:101FE00087E691E093838283358324830E948A1954
:101FF0002DB73EB72A5F3F4F0FB6F8943EBF0FBED6
:102000002DBF89810F900F900F900F90CF91DF918E
:102010000895DF93CF93CDB7DEB7AFE5B0E0EFE53E
:10202000F0E0808180688C93CF91DF910895DF93F9
:10203000CF93CDB7DEB7AFE5B0E0EFE5F0E080815C
:102040008F778C93CF91DF910895DF93CF93CDB7A6
:10205000DEB72E970FB6F894DEBF0FBECDBF80E07F
:1020600090E0A0EFB1E48B879C87AD87BE876B853E
:102070007C858D859E8520E030E04AEF54E40E9407
:102080001F02DC01CB018F839887A987BA876F81F4
:10209000788589859A8520E030E040E85FE30E94FA
:1020A000790388232CF481E090E09E838D833FC0E8
:1020B0006F81788589859A8520E03FEF4FE757E467
:1020C0000E94190318164CF56B857C858D859E85BD
:1020D00020E030E040E251E40E941F02DC01CB012D
:1020E000BC01CD010E944900DC01CB019E838D83A0
:1020F0000FC088EC90E09C838B838B819C8101973F
:10210000F1F79C838B838D819E8101979E838D83C4
:102110008D819E81009769F714C06F8178858985CC
:102120009A850E944900DC01CB019E838D838D81BD
:102130009E819A83898389819A810197F1F79A8395
:10214000898382E060E041E00E94590782E061E01B
:1021500041E00E94590782E062E041E00E94590795
:1021600082E063E041E00E94590782E064E041E0E0
:102170000E94590782E065E041E00E94590782E031
:102180000E94461288E20E9446128CE00E9446128B
:1021900081E00E94461286E00E9446122E960FB6FB
:1021A000F894DEBF0FBECDBFCF91DF910895DF93CE
:1021B000CF93CDB7DEB76D970FB6F894DEBF0FBEE5
:1021C000CDBF8D8F8D8D982F991F9927991F82E0F4
:1021D00065E0492F0E945D088D8D829586958695D4
:1021E0008370982F917082E064E0492F0E945D080F
:1021F0008D8D829586958770982F917082E063E02F
:10220000492F0E945D088D8D82958F70982F917057
:1022100082E062E0492F0E945D0882E061E041E0D7
:102220000E945D0880E090E0A0E0B0E4898F9A8F82
:10223000AB8FBC8F698D7A8D8B8D9C8D20E030E0CB
:102240004AEF54E40E941F02DC01CB018D8B9E8B70
:10225000AF8BB88F6D897E898F89988D20E030E0B3
:1022600040E85FE30E94790388232CF481E090E04A
:102270009C8B8B8B3FC06D897E898F89988D20E0E8
:102280003FEF4FE757E40E94190318164CF5698D8C
:102290007A8D8B8D9C8D20E030E040E251E40E94ED
:1022A0001F02DC01CB01BC01CD010E944900DC0111
:1022B000CB019C8B8B8B0FC088EC90E09A8B898B29
:1022C00089899A890197F1F79A8B898B8B899C89E7
:1022D00001979C8B8B8B8B899C89009769F714C025
:1022E0006D897E898F89988D0E944900DC01CB0120
:1022F0009C8B8B8B8B899C89988B8F878F859889FA
:102300000197F1F7988B8F8782E061E040E00E94AF
:102310005D088D8D869586958695982F917082E0C3
:1023200065E0492F0E945D088D8D86958695982FD2
:10233000917082E064E0492F0E945D088D8D869542
:10234000982F917082E063E0492F0E945D088D8D87
:10235000982F917082E062E0492F0E945D0882E030
:1023600061E041E00E945D0880E090E0A0E0B0E420
:102370008B879C87AD87BE876B857C858D859E8589
:1023800020E030E04AEF54E40E941F02DC01CB0160
:102390008F839887A987BA876F81788589859A8581
:1023A00020E030E040E85FE30E94790388232CF4CA
:1023B00081E090E09E838D833FC06F817885898521
:1023C0009A8520E03FEF4FE757E40E941903181663
:1023D0004CF56B857C858D859E8520E030E040E264
:1023E00051E40E941F02DC01CB01BC01CD010E941F
:1023F0004900DC01CB019E838D830FC088EC90E007
:102400009C838B838B819C810197F1F79C838B83C9
:102410008D819E8101979E838D838D819E81009702
:1024200069F714C06F81788589859A850E94490073
:10243000DC01CB019E838D838D819E819A8389836C
:1024400089819A810197F1F79A83898382E061E01B
:1024500040E00E945D086D960FB6F894DEBF0FBE97
:10246000CDBFCF91DF910895DF93CF930F92CDB77A
:10247000DEB7898382E060E041E00E945D088981E7
:102480000E94D7100F90CF91DF910895DF93CF93E3
:102490000F92CDB7DEB7898382E060E040E00E9412
:1024A0005D0889810E94D7100F90CF91DF91089528
:1024B000DF93CF9300D000D0CDB7DEB79C838B8362
:1024C0001A8219820FC02B813C8189819A81F9017E
:1024D000E80FF91F80810E94341289819A81019648
:1024E0009A8389832B813C8189819A81F901E80F44
:1024F000F91F8081882339F70F900F900F900F906C
:10250000CF91DF910895DF93CF93CDB7DEB72797B3
:102510000FB6F894DEBF0FBECDBF8E836F831A82D5
:1025200080E48B8384E18C8384E58D838E81282FE6
:1025300030E0CE010296FC01E20FF31F90818F8103
:10254000890F8058898389810E94461227960FB689
:10255000F894DEBF0FBECDBFCF91DF910895DF931A
:10256000CF93CDB7DEB781E00E944612CF91DF91C5
:1025700008950F931F93DF93CF93CDB7DEB7639783
:102580000FB6F894DEBF0FBECDBF688B798B8A8BF8
:102590009B8B88899989AA89BB898A839B83AC8311
:1025A000BD8319828981082F10E08A819B81AC81CB
:1025B000BD812AE030E040E050E0BC01CD010E9446
:1025C0001F19DC01CB01282F205DCE010696FC01EE
:1025D000E00FF11F20838A819B81AC81BD812AE0BD
:1025E00030E040E050E0BC01CD010E941F19DA014B
:1025F000C9018A839B83AC83BD8389818F5F898373
:102600008A819B81AC81BD810097A105B10551F6FE
:1026100011C08981882F90E09C0121503040CE016B
:102620000696FC01E20FF31F80810E94341289811B
:10263000815089838981882361F763960FB6F89466
:10264000DEBF0FBECDBFCF91DF911F910F910895D7
:10265000DF93CF9300D000D00F92CDB7DEB79C832D
:102660008B836D8319828D81882F90E00896880F67
:10267000991F880F991F880F991F8A838A810E944A
:10268000461219820EC08981282F30E08B819C81EF
:10269000FC01E20FF31F80810E94341289818F5F59
:1026A00089838981883078F30F900F900F900F9075
:1026B0000F90CF91DF910895DF93CF930F92CDB715
:1026C000DEB7898389810E9434120F90CF91DF9108
:1026D0000895DF93CF9300D0CDB7DEB79A83898377
:1026E00089819A81009731F089819A8190930102C2
:1026F000809300020F900F90CF91DF9108951F9269
:102700000F920FB60F9211242F933F934F935F9325
:102710006F937F938F939F93AF93BF93EF93FF93A9
:10272000DF93CF93CDB7DEB7809100029091010285
:10273000009729F0E0910002F09101020995CF91F4
:10274000DF91FF91EF91BF91AF919F918F917F9119
:102750006F915F914F913F912F910F900FBE0F900E
:102760001F901895DF93CF93CDB7DEB7ADE2B0E001
:10277000EDE2F0E080818F7E8C9381E064E040E0C8
:102780000E94590781E065E040E00E94590781E01E
:1027900066E041E00E94590781E067E040E00E9466
:1027A0005907ADE2B0E0EDE2F0E0808180688C9303
:1027B000ADE2B0E0EDE2F0E0808180628C93ADE2CA
:1027C000B0E0EDE2F0E0808180648C93CF91DF9106
:1027D0000895DF93CF9300D0CDB7DEB78A831982F7
:1027E000EFE2F0E08A818083EEE2F0E080818823EE
:1027F000DCF7EFE2F0E08081898389810F900F9010
:10280000CF91DF910895DF93CF9300D00F92CDB792
:10281000DEB79B838A831982EEE2F0E08081881F15
:102820008827881F813039F4EFE2F0E08081EA8167
:10283000FB81808302C081E0898389810F900F90A2
:102840000F90CF91DF910895DF93CF930F92CDB783
:10285000DEB78983EFE2F0E0898180830F90CF912A
:10286000DF910895DF93CF9300D000D00F92CDB7C2
:10287000DEB79D838C831B821A8219828091960118
:102880008F3F89F41B820CC08B81282F30E08C8114
:102890009D81FC01E20FF31F10828B818F5F8B8380
:1028A0008B81843189F7809196018F5F80939601A7
:1028B00080919601282F30E08C819D81820F931F9B
:1028C0000E9403148A838A81813041F480919601A9
:1028D00081508093960181E08A830CC0809196019B
:1028E000282F30E08C819D81FC01E20FF31F808155
:1028F0008332C9F680919601282F30E08C819D812A
:10290000FC01E20FF31F8081833229F48FEF809363
:10291000960181E0898389810F900F900F900F902D
:102920000F90CF91DF910895DF93CF93CDB7DEB7AE
:1029300083E065E041E00E945907AFE4B0E0EFE4D6
:10294000F0E080818E7F8C93AFE4B0E0EFE4F0E0C4
:10295000808182608C93AEE4B0E0EEE4F0E08081B0
:1029600088608C93AEE4B0E0EEE4F0E080818061BA
:102970008C93AFE4B0E0EFE4F0E0808180688C936A
:10298000AFE4B0E0EFE4F0E080818F7B8C93CF91F7
:10299000DF910895DF93CF93CDB7DEB7E6E4F0E0A3
:1029A00081E792E091838083CF91DF910895DF9357
:1029B000CF9300D0CDB7DEB79A838983EAE4F0E005
:1029C00089819A81918380830F900F90CF91DF91BD
:1029D0000895DF93CF93CDB7DEB7AEE4B0E0EEE479
:1029E000F0E080818E7F8C93AEE4B0E0EEE4F0E026
:1029F00080818D7F8C93AEE4B0E0EEE4F0E08081E6
:102A000084608C93CF91DF910895DF93CF93CDB7FE
:102A1000DEB7AEE4B0E0EEE4F0E080818E7F8C9330
:102A2000AEE4B0E0EEE4F0E080818D7F8C93AEE424
:102A3000B0E0EEE4F0E080818B7F8C93CF91DF916A
:102A40000895DF93CF93CDB7DEB781E063E041E037
:102A50000E945907E3E5F0E0808180648083E3E52C
:102A6000F0E0808188608083E3E5F0E080818F7C06
:102A700080628083CF91DF910895DF93CF93CDB7AC
:102A8000DEB7E3E5F0E08081887F8083CF91DF913E
:102A90000895DF93CF93CDB7DEB7E3E5F0E0808113
:102AA000887F85608083CF91DF910895DF93CF93F6
:102AB0000F92CDB7DEB78983E2E5F0E089818083AC
:102AC0000F90CF91DF910895DF93CF93CDB7DEB70D
:102AD000E2E5F0E08081CF91DF9108950F931F939D
:102AE000DF93CF930F92CDB7DEB789830CE510E06B
:102AF0008981882F90E0A0E0B0E02FEF30E040E047
:102B000050E0BC01CD010E940019DC01CB0124E69C
:102B100030E040E050E0BC01CD010E941F19DA0115
:102B2000C901F80180830F90CF91DF911F910F9120
:102B30000895DF93CF93CDB7DEB7E1E4F0E0808175
:102B400088608083CF91DF910895DF93CF93CDB7D5
:102B5000DEB7E1E4F0E088E18083E1E4F0E0808149
:102B6000877F8083CF91DF910895DF93CF930F927A
:102B7000CDB7DEB78983E1E4F0E089818770982FD3
:102B800097708081887F892B80830F90CF91DF9110
:102B90000895DF93CF93CDB7DEB783E067E041E0E0
:102BA0000E945907E5E4F0E0808180648083E5E4D9
:102BB000F0E0808188608083E5E4F0E080818F7CB4
:102BC00080628083CF91DF910895DF93CF93CDB75B
:102BD000DEB7E5E4F0E08081887F8083CF91DF91EC
:102BE0000895DF93CF93CDB7DEB7E5E4F0E08081C1
:102BF000887F85608083CF91DF910895DF93CF93A5
:102C00000F92CDB7DEB78983E4E4F0E08981808359
:102C10000F90CF91DF910895DF93CF93CDB7DEB7BB
:102C2000E4E4F0E08081CF91DF9108950F931F934A
:102C3000DF93CF930F92CDB7DEB7898303E410E023
:102C40008981882F90E0A0E0B0E02FEF30E040E0F5
:102C500050E0BC01CD010E940019DC01CB0124E64B
:102C600030E040E050E0BC01CD010E941F19DA01C4
:102C7000C901F80180830F90CF91DF911F910F91CF
:102C80000895DF93CF930F92CDB7DEB783E060E076
:102C900040E00E94590783E061E041E00E9459074B
:102CA000E9E2F0E083E380838981877E89838981FB
:102CB0008E7F8983898186608983EAE2F0E0808162
:102CC0008B7F8083898180648983E0E4F0E089815F
:102CD0008083EAE2F0E0808180618083EAE2F0E0D4
:102CE0008081886080830F90CF91DF910895DF937A
:102CF000CF9300D000D000D0CDB7DEB78E831A823C
:102D00001B821C821D82198216C08A819B81AC8124
:102D1000BD810196A11DB11D8A839B83AC83BD83B8
:102D2000EBE2F0E080818072882329F0ECE2F0E0B1
:102D30008E8180830CC08A819B81AC81BD81813D65
:102D400027E0920720E0A20720E0B207F0F28A8194
:102D50009B81AC81BD81803D27E0920720E0A207E6
:102D600020E0B20711F481E08983898126960FB6AD
:102D7000F894DEBF0FBECDBFCF91DF910895DF93F2
:102D8000CF9300D00F92CDB7DEB79B838A83198291
:102D90000EC08981282F30E08A819B81FC01E20FDF
:102DA000F31F80810E94771689818F5F89838981D3
:102DB000282F30E08A819B81FC01E20FF31F808184
:102DC000882339F70F900F900F90CF91DF910895DE
:102DD000DF93CF9300D000D0CDB7DEB79C838B8339
:102DE0008FEF8A8319820CC08981282F30E08B8174
:102DF0009C81FC01E20FF31F108289818F5F898320
:102E00008981843189F78A818F5F8A838A81282F1B
:102E1000332727FD30958B819C81820F931F0E9461
:102E200025178A81282F332727FD30958B819C8198
:102E3000FC01E20FF31F8081833229F70F900F907E
:102E40000F900F90CF91DF910895DF93CF9300D033
:102E50000F92CDB7DEB79B838A831982EBE2F0E055
:102E6000808180788823D1F3ECE2F0E08081EA81F0
:102E7000FB81808389810F900F900F90CF91DF911C
:102E80000895DF93CF93CDB7DEB72F970FB6F894A1
:102E9000DEBF0FBECDBF81E08F870E942A1880E081
:102EA0000E94C00589E192E00E94DE0520911B028C
:102EB00030911C028091190290911A02281739074B
:102EC000C9F080E061E10E9483128AE691E00E94ED
:102ED000581280E061E10E94831280911902909162
:102EE0001A0296958795CC01A0E0B0E0BC01CD0117
:102EF0000E94B9128091190290911A0290931C02BB
:102F000080931B0280911602813061F610921602A6
:102F1000809102028D3431F4809103020E94370EB9
:102F20008F8715C080910202843441F4809103029E
:102F30000E94840A8F870E94051509C080910202B1
:102F40008C3429F4809103020E94400F8F878F8573
:102F5000813009F07CC00E94AF1280E060E00E94E6
:102F600083128EE691E00E94581280E090E0A8EC77
:102F7000B2E48B879C87AD87BE876B857C858D850A
:102F80009E8520E030E04AEF54E40E941F02DC01FD
:102F9000CB018F839887A987BA876F8178858985C8
:102FA0009A8520E030E040E85FE30E9479038823BF
:102FB0002CF481E090E09E838D833FC06F81788503
:102FC00089859A8520E03FEF4FE757E40E94190377
:102FD00018164CF56B857C858D859E8520E030E04C
:102FE00040E251E40E941F02DC01CB01BC01CD0193
:102FF0000E944900DC01CB019E838D830FC088ECC9
:1030000090E09C838B838B819C810197F1F79C835B
:103010008B838D819E8101979E838D838D819E817F
:10302000009769F714C06F81788589859A850E9419
:103030004900DC01CB019E838D838D819E819A8323
:10304000898389819A810197F1F79A8389830E9404
:103050004D1828CFDF93CF93CDB7DEB70E94B213C0
:103060000E9409100E94A3050E945F0A0E94251079
:103070000E941C0E0E9421150E94C9150E949414E2
:103080000E94CA1483EC98E10E9469130E94050C07
:103090000E944D18CF91DF910895DF93CF93CDB764
:1030A000DEB780E060E00E94831283ED91E00E9431
:1030B000581280E06FE00E94831288E791E00E943E
:1030C000581280E061E10E9483128AE691E00E943A
:1030D000581280E061E10E94831280911902909160
:1030E0001A0296958795CC01A0E0B0E0BC01CD0115
:1030F0000E94B91281E060E00E9483128BE791E0A8
:103100000E94581281E064E00E94831282EE91E0F6
:103110000E94581285E20E94341281E06BE00E9406
:10312000831285E891E00E94581281E06FE00E94CE
:10313000831281EF91E00E94581285E20E943412BE
:1031400082E060E00E94831287E991E00E945812B9
:1031500082E06BE00E94831286EA91E00E9458129E
:1031600083E060E00E94831285EB91E00E94581298
:1031700083E06BE00E94831284EC91E00E9458127D
:10318000CF91DF910895DF93CF930F92CDB7DEB744
:10319000198280911D02882379F419820AC08981DD
:1031A000882F90E0FC01EE5FFD4F108289818F5FD8
:1031B00089838981843199F780911D02882F90E05D
:1031C000EFE2F0E02081FC01EE5FFD4F2083809173
:1031D0001D02882F90E0FC01EE5FFD4F808183325D
:1031E00031F080911D028F5F80931D0205C0109207
:1031F0001D0281E0809316020F90CF91DF91089518
:10320000629FD001739FF001829FE00DF11D649FCA
:10321000E00DF11D929FF00D839FF00D749FF00D56
:10322000659FF00D9927729FB00DE11DF91F639FF7
:10323000B00DE11DF91FBD01CF0111240895A1E2D8
:103240001A2EAA1BBB1BFD010DC0AA1FBB1FEE1F20
:10325000FF1FA217B307E407F50720F0A21BB30B6B
:10326000E40BF50B661F771F881F991F1A9469F7E7
:1032700060957095809590959B01AC01BD01CF0143
:1032800008952F923F924F925F926F927F928F920A
:103290009F92AF92BF92CF92DF92EF92FF920F93E5
:1032A0001F93CF93DF93CDB7DEB7CA1BDB0B0FB6EF
:1032B000F894DEBF0FBECDBF09942A8839884888AC
:1032C0005F846E847D848C849B84AA84B984C88442
:1032D000DF80EE80FD800C811B81AA81B981CE0F39
:1032E000D11D0FB6F894DEBF0FBECDBFED0108951E
:1032F000FB01DC0102C001900D9241505040D8F713
:103300000895FB01DC018D91019080190110D9F322
:10331000990B0895AEE0B0E0E0E9F9E10C944F19A3
:103320000D891E8986E08C831A8309838FEF9FE7BE
:103330009E838D839E01275E3F4FCE0101966F894C
:10334000788DA9010E94AE192F813885020F131FB5
:10335000F80110822E96E4E00C946B19ABE0B0E01B
:10336000E4EBF9E10C9441193C012B015A01FC01F9
:1033700017821682838181FD03C06FEF7FEFC6C184
:103380009AE0892E1E010894211C311CF30123812F
:10339000F20123FD859123FF81912F01882309F4F8
:1033A000B2C1853239F423FD859123FF81912F012C
:1033B000853229F490E0B3010E94A11BE7CF982F3A
:1033C000FF24EE249924FFE1FF15D0F09B3269F031
:1033D0009C3228F4903259F0933291F40EC09D3211
:1033E00049F0903369F441E024C052E0F52A84E0CA
:1033F000F82A28C098E0F92A25C0E0E1FE2A22C078
:10340000F7FC29C0892F80538A3070F4F6FE05C07E
:10341000989C902C1124980E15C0E89CE02C112447
:10342000E80EF0E2FF2A0EC09E3229F4F6FC6BC1D2
:1034300040E4F42A07C09C3619F450E8F52A02C08B
:10344000983649F4F20123FD959123FF91912F01C4
:10345000992309F0B8CF892F8554833018F0805212
:10346000833038F444E050E0A40EB51E5FE3598386
:103470000FC0933631F0933779F0933509F056C089
:1034800020C0F5018081898342E050E0A40EB51E82
:10349000610101E010E012C0F501C080D180F6FCAE
:1034A00003C06FEF7FEF02C0692D70E042E050E093
:1034B000A40EB51EC6010E94961B8C015FE7F52283
:1034C00014C0F501C080D180F6FC03C06FEF7FEF20
:1034D00002C0692D70E042E050E0A40EB51EC601A6
:1034E0000E948B1B8C0150E8F52AF3FE07C01AC01E
:1034F00080E290E0B3010E94A11BEA948E2D90E03F
:1035000008171907A8F30EC0F601F7FC8591F7FE1E
:1035100081916F0190E0B3010E94A11BE110EA9438
:10352000015010400115110579F7EAC0943611F0E9
:10353000993669F5F7FE08C0F50120813181428195
:10354000538184E090E00AC0F501808191819C0163
:10355000442737FD4095542F82E090E0A80EB91E15
:103560009FE6F92257FF09C0509540953095219567
:103570003F4F4F4F5F4FE0E8FE2ACA01B901A1015A
:103580002AE030E00E94CD1BD82ED21840C09537DB
:1035900029F41F2D1F7E2AE030E01DC01F2D197F4A
:1035A0009F3661F0903720F4983509F0ACC00FC019
:1035B000903739F0983709F0A6C004C028E030E011
:1035C0000AC0106114FD146020E130E004C014FD55
:1035D000166020E132E017FF08C0F50160817181BB
:1035E0008281938144E050E008C0F501808191819F
:1035F000BC0180E090E042E050E0A40EB51EA101C5
:103600000E94CD1BD82ED2188FE7F82EF122F6FE9D
:103610000BC05EEFF522D91438F4F4FE07C0F2FCBB
:1036200005C08FEEF82202C01D2D01C0192DF4FE39
:103630000DC0FE01ED0DF11D8081803319F499EE6E
:10364000F92208C01F5FF2FE05C003C08F2D8678E7
:1036500009F01F5F0F2DF3FC14C0F0FE0FC01E1504
:1036600010F09D2C0BC09D2C9E0C911A1E2D06C097
:1036700080E290E0B3010E94A11B1F5F1E15C0F302
:1036800004C01E1510F4E11A01C0EE2404FF0FC09F
:1036900080E390E0B3010E94A11B02FF1DC001FD69
:1036A00003C088E790E00EC088E590E00BC0802F53
:1036B000867891F001FF02C08BE201C080E2F7FC46
:1036C0008DE290E0B3010E94A11B06C080E390E070
:1036D000B3010E94A11B9A94D914C0F3DA94F101AA
:1036E000ED0DF11D808190E0B3010E94A11BDD2052
:1036F000A9F706C080E290E0B3010E94A11BEA9402
:10370000EE20C1F743CEF30166817781CB012B9682
:10371000E2E10C945D19FC010590615070400110CC
:10372000D8F7809590958E0F9F1F0895FC016150EA
:10373000704001900110D8F7809590958E0F9F1FD3
:1037400008950F931F93CF93DF938C01EB018B812F
:1037500081FF1BC082FF0DC02E813F818C819D8126
:103760002817390764F4E881F9810193F983E88324
:1037700006C0E885F985802F0995892B31F48E8163
:103780009F8101969F838E8302C00FEF1FEFC801B8
:10379000DF91CF911F910F910895FA01AA27283048
:1037A00051F1203181F1E8946F936E7F6E5F7F4F0E
:1037B0008F4F9F4FAF4FB1E03ED0B4E03CD0670F8A
:1037C000781F891F9A1FA11D680F791F8A1F911DDD
:1037D000A11D6A0F711D811D911DA11D20D009F42D
:1037E00068943F912AE0269F11243019305D31936F
:1037F000DEF6CF010895462F4770405D4193B3E058
:103800000FD0C9F7F6CF462F4F70405D4A3318F0FE
:10381000495D31FD4052419302D0A9F7EACFB4E0AF
:10382000A6959795879577956795BA95C9F7009767
:103830006105710508959B01AC010A2E0694579508
:10384000479537952795BA95C9F7620F731F841F5F
:0A385000951FA01D0895F894FFCF06
:10385A0044314F50454E23004431204F70656E204D
:10386A0020004431434C4F53452300443120436CDC
:10387A006F7365640044324F50454E230044322032
:10388A004F70656E2020004432434C4F534523004D
:10389A00443220436C6F7365640044334F50454E85
:1038AA0023004433204F70656E2020004433434C7C
:1038BA004F53452300443320436C6F7365640044BF
:1038CA00344F50454E23004434204F70656E2020FB
:1038DA00004434434C4F53452300443420434C4F57
:1038EA00534544004D4623004D6F76696E67204666
:1038FA006F7277617264004D5223004D6F76696E64
:10390A00672052696768742020004D4223004D6F7A
:10391A0076696E67204261636B202020004D4C233C
:10392A00004D6F76696E67204C6566742020200012
:10393A004D5323004361722053746F7065642020D5
:10394A002020004C464923004C464423004C42495F
:10395A0023004C42442300256400202020005452B6
:10396A005920414741494E00543D004C2E463D20C6
:10397A0020202020004C2E423D2020202000000044
:10398A00000000000000FF443120436C6F7365643F
:10399A00000000000000443220436C6F736564002D
:1039AA000000000000443320436C6F73656400001C
:1039BA0000000000443420436C6F7365640000000B
:1039CA000000004361722053746F70656400000048
:1039DA0000003000000000000000000000000000AD
:1039EA00003000000000000000000000000000009D
:00000001FF
